:020000040000fa
:080000000002040000000000f2
:020000040000fa
:04000800c803000029
:020000040000fa
:04000c00c803000025
:020000040000fa
:04001000c803000021
:020000040000fa
:04001400c80300001d
:020000040000fa
:04001800c803000019
:020000040000fa
:04001c00c803000015
:020000040000fa
:04002000c803000011
:020000040000fa
:04002400c80300000d
:020000040000fa
:04002800c803000009
:020000040000fa
:04002c00fa020000d4
:020000040000fa
:04003000c803000001
:020000040000fa
:04003400c8030000fd
:020000040000fa
:04003800c8030000f9
:020000040000fa
:04003c00c8030000f5
:020000040000fa
:04004000c8030000f1
:020000040000fa
:04004400c8030000ed
:020000040000fa
:04004800c8030000e9
:020000040000fa
:04004c00c8030000e5
:020000040000fa
:04005000c8030000e1
:020000040000fa
:040054005403000051
:020000040000fa
:040058008a03000017
:020000040000fa
:04005c00c8030000d5
:020000040000fa
:04006000c8030000d1
:020000040000fa
:04006400c8030000cd
:020000040000fa
:04006800c8030000c9
:020000040000fa
:04006c00c8030000c5
:020000040000fa
:04007000c8030000c1
:020000040000fa
:04007400c8030000bd
:020000040000fa
:04007800c8030000b9
:020000040000fa
:04007c00c8030000b5
:020000040000fa
:04008000c8030000b1
:020000040000fa
:04008400c8030000ad
:020000040000fa
:04008800c8030000a9
:020000040000fa
:04008c00c8030000a5
:020000040000fa
:04009000c8030000a1
:020000040000fa
:04009400c80300009d
:020000040000fa
:04009800c803000099
:020000040000fa
:04009c00c803000095
:020000040000fa
:0400a000c803000091
:020000040000fa
:0400a400c80300008d
:020000040000fa
:0400a800c803000089
:020000040000fa
:0400ac00c803000085
:020000040000fa
:0400b000c803000081
:020000040000fa
:0400b400c80300007d
:020000040000fa
:0400b800c803000079
:020000040000fa
:0400bc00c803000075
:020000040000fa
:0400c000c803000071
:020000040000fa
:0400c400c80300006d
:020000040000fa
:0400c800c803000069
:020000040000fa
:0400cc00c803000065
:020000040000fa
:0400d000c803000061
:020000040000fa
:0400d400c80300005d
:020000040000fa
:0400d800c803000059
:020000040000fa
:0400dc00c803000055
:020000040000fa
:0400e000c803000051
:020000040000fa
:0400e400c80300004d
:020000040000fa
:0400e800c803000049
:020000040000fa
:0400ec00c803000045
:020000040000fa
:0400f000c803000041
:020000040000fa
:0400f400c80300003d
:020000040000fa
:0400f800c803000039
:020000040000fa
:0400fc00c803000035
:020000040000fa
:04010000c803000030
:020000040000fa
:04010400c80300002c
:020000040000fa
:04010800c803000028
:020000040000fa
:04010c00c803000024
:020000040000fa
:04011000c803000020
:020000040000fa
:04011400c80300001c
:020000040000fa
:04011800c803000018
:020000040000fa
:04011c00c803000014
:020000040000fa
:04012000c803000010
:020000040000fa
:04012400c80300000c
:020000040000fa
:04012800c803000008
:020000040000fa
:04012c00c803000004
:020000040000fa
:04013000c803000000
:020000040000fa
:04013400c8030000fc
:020000040000fa
:04013800c8030000f8
:020000040000fa
:04013c00c8030000f4
:020000040000fa
:04014000c8030000f0
:020000040000fa
:04014400c8030000ec
:020000040000fa
:04014800c8030000e8
:020000040000fa
:04014c00c8030000e4
:020000040000fa
:04015000c8030000e0
:020000040000fa
:04015400c8030000dc
:020000040000fa
:04015800c8030000d8
:020000040000fa
:04015c00c8030000d4
:020000040000fa
:04016000c8030000d0
:020000040000fa
:04016400c8030000cc
:020000040000fa
:04016800c8030000c8
:020000040000fa
:04016c00c8030000c4
:020000040000fa
:04017000c8030000c0
:020000040000fa
:04017400c8030000bc
:020000040000fa
:04017800c8030000b8
:020000040000fa
:04017c00c8030000b4
:020000040000fa
:04018000c8030000b0
:020000040000fa
:04018400c8030000ac
:020000040000fa
:04018800c8030000a8
:020000040000fa
:04018c00c8030000a4
:020000040000fa
:04019000c8030000a0
:020000040000fa
:04019400c80300009c
:020000040000fa
:04019800c803000098
:020000040000fa
:04019c00c803000094
:020000040000fa
:0401a000c803000090
:020000040000fa
:0401a400c80300008c
:020000040000fa
:0401a800c803000088
:020000040000fa
:0401ac00c803000084
:020000040000fa
:0401b000c803000080
:020000040000fa
:0401b400c80300007c
:020000040000fa
:0401b800c803000078
:020000040000fa
:0401bc00c803000074
:020000040000fa
:0401c000c803000070
:020000040000fa
:0401c400c80300006c
:020000040000fa
:0401c800c803000068
:020000040000fa
:0401cc00c803000064
:020000040000fa
:0401d000c803000060
:020000040000fa
:0401d400c80300005c
:020000040000fa
:0401d800c803000058
:020000040000fa
:0401dc00c803000054
:020000040000fa
:0401e000c803000050
:020000040000fa
:0401e400c80300004c
:020000040000fa
:0401e800c803000048
:020000040000fa
:0401ec00c803000044
:020000040000fa
:0401f000c803000040
:020000040000fa
:0401f400c80300003c
:020000040000fa
:0401f800c803000038
:020000040000fa
:0401fc00c803000034
:020000040000fa
:04020000c80300002f
:020000040000fa
:04020400c80300002b
:020000040000fa
:04020800c803000027
:020000040000fa
:04020c00c803000023
:020000040000fa
:04021000c80300001f
:020000040000fa
:04021400c80300001b
:020000040000fa
:04021800c803000017
:020000040000fa
:04021c00c803000013
:020000040000fa
:04022000c80300000f
:020000040000fa
:04022400c80300000b
:020000040000fa
:04022800c803000007
:020000040000fa
:04022c00c803000003
:020000040000fa
:04023000c8030000ff
:020000040000fa
:04023400c8030000fb
:020000040000fa
:04023800c8030000f7
:020000040000fa
:04023c00c8030000f3
:020000040000fa
:04024000c8030000ef
:020000040000fa
:04024400c8030000eb
:020000040000fa
:04024800c8030000e7
:020000040000fa
:04024c00c8030000e3
:020000040000fa
:04025000c8030000df
:020000040000fa
:04025400c8030000db
:020000040000fa
:04025800c8030000d7
:020000040000fa
:04025c00c8030000d3
:020000040000fa
:04026000c8030000cf
:020000040000fa
:04026400c8030000cb
:020000040000fa
:04026800c8030000c7
:020000040000fa
:04026c00c8030000c3
:020000040000fa
:04027000c8030000bf
:020000040000fa
:04027400c8030000bb
:020000040000fa
:04027800c8030000b7
:020000040000fa
:04027c00c8030000b3
:020000040000fa
:04028000c8030000af
:020000040000fa
:04028400c8030000ab
:020000040000fa
:04028800c8030000a7
:020000040000fa
:04028c00c8030000a3
:020000040000fa
:04029000c80300009f
:020000040000fa
:04029400c80300009b
:020000040000fa
:04029800c803000097
:020000040000fa
:04029c00c803000093
:020000040000fa
:0402a000c80300008f
:020000040000fa
:0402a400c80300008b
:020000040000fa
:0402a800c803000087
:020000040000fa
:0402ac00c803000083
:020000040000fa
:0402b000c80300007f
:020000040000fa
:0402b400c80300007b
:020000040000fa
:0402b800c803000077
:020000040000fa
:0402bc00c803000073
:020000040000fa
:0402c000c80300006f
:020000040000fa
:0402c400c80300006b
:020000040000fa
:0402c800c803000067
:020000040000fa
:0402cc00c803000063
:020000040000fa
:0402d000c80300005f
:020000040000fa
:0402d400c80300005b
:020000040000fa
:0402d800c803000057
:020000040000fa
:0402dc00c803000053
:020000040000fa
:0402e000c80300004f
:020000040000fa
:0402e400c80300004b
:020000040000fa
:0402e800c803000047
:020000040000fa
:0402ec00c803000043
:020000040000fa
:0402f000c80300003f
:020000040000fa
:0402f400c80300003b
:020000040000fa
:0402f800c803000037
:020000040000fa
:0402fc00c803000033
:020000040000fa
:04030000c80300002e
:020000040000fa
:04030400c80300002a
:020000040000fa
:04030800c803000026
:020000040000fa
:04030c00c803000022
:020000040000fa
:04031000c80300001e
:020000040000fa
:04031400c80300001a
:020000040000fa
:04031800c803000016
:020000040000fa
:04031c00c803000012
:020000040000fa
:04032000c80300000e
:020000040000fa
:04032400c80300000a
:020000040000fa
:100400008f2c21000eff22000e018800000000004a
:10041000000020000000e000020032000001200087
:100420002002880014000700db0007000000e00045
:1004300003003a0080ca20000100200002003700bb
:100440000000200001002000810f70000100320038
:100450000f000700000020000000e0000200320052
:1004600000000200000000003a0f0200000000003f
:100470000040da000000fe00002020000000e00044
:1004800002003200002020009001880000000600d9
:10049000a1028800800478000000eb001f003700f4
:1004a000e284440054a0b4009905ba00e2844400f8
:1004b00054a0b4009906ba00e284440054a0b400e9
:1004c0000006eb00476fde00fd07b200ae018800ba
:1004d000636ce10003003a000ad801000000eb0061
:1004e0000e003700606ce10008003a00004deb00a0
:1004f0000a05e800020039003420ec000af0a000f0
:100500008b05e900f9ff3e00040037006168e10057
:10051000010032000086eb000b00070019c7ba008b
:100520001905ba000e04e00003003a000a00e000da
:10053000dbff3a0000000600fe07b200ae028800b2
:100540008a047800f5ff37000cd0a300e20f4d00bd
:100550001c00390089027800354dba000a05e80010
:10056000020039003420ec000af0a0008b05e900fd
:100570000f003200254dba000a05e80002003900dc
:100580003420ec000af0a0008b05e90008003200de
:100590000c00e0000600320015cdba000a05e800a4
:1005a000020039003420ec000af0a0008b05e900bd
:1005b0008984e80054a0b4000b00e000e2ff3a0098
:1005c000000006009902ba00055d78008b05e9007d
:1005d000f7ff3200c82ade00055d78008b05e900d0
:1005e000f3ff32000c00e000f1ff320019ddba0029
:1005f000eeff37003600f800809fbe00829fbe00ed
:10060000849fbe00869fbe000000fa000421ef0018
:10061000408180000000e000030032004081800043
:100620000000e8004081880041818000f031200016
:10063000808f5000090036002830ef001e70ef0058
:1006400020128000004078001cf0b7000168a9006b
:10065000232ea90010c0b30030f0b700e0118000d5
:10066000640060000000e00004003a00e011800037
:10067000680060000000e000030032009e010700f7
:1006800010c0b30030f0b7000028a9000080fa00c5
:100690004f03be004f02be004f01be004f00be0020
:1006a0003600f900004006003600f800809fbe00ca
:1006b000829fbe00849fbe00869fbe000000fa009d
:1006c00020128000004078001cf0b70033010700c2
:1006d0001ed0bf008080fb00c30121009341780041
:1006e000c228210003f178000040e8001ef0b700a6
:1006f0000168a9009b0107000080fa004f03be00bb
:100700004f02be004f01be004f00be003600f90090
:1007100000400600809fbe000000fa001fd0bf000e
:100720000040e8001ff0b700f1012100914078007f
:1007300020d0bf0080cf5000070031001fd0bf0085
:100740000080fb00a12a2100614078000080fb00ae
:10075000401288000a00370000000000e11180000c
:1007600000082000008060000000e000fbff320075
:10077000232ea9000168a90010c0b30030f0b70013
:100780000188a9000080fa004f00be00004006006a
:0c0790000040da000000fe000000050040
:020000040000fa
:10079c000001000002030000040500000607000031
:1007ac00080900000a0b00000c0d00000e0f0000e1
:1007bc001011000012130000141500001617000091
:1007cc00181900001a1b00001c1d00001e1f000041
:1007dc0020210000222300002425000026270000f1
:1007ec00282900002a2b00002c2d00002e2f0000a1
:1007fc003031000032330000343500003637000051
:10080c00383900003a3b00003c3d00003e3f000000
:10081c0040410000424300004445000046470000b0
:10082c00484900004a4b00004c4d00004e4f000060
:10083c005051000052530000545500005657000010
:10084c00585900005a5b00005c5d00005e5f0000c0
:10085c006061000062630000646500006667000070
:10086c00686900006a6b00006c6d00006e6f000020
:10087c0070710000727300007475000076770000d0
:10088c00787900007a7b00007c7d00007e7f000080
:10089c008081000082830000848500008687000030
:1008ac00888900008a8b00008c8d00008e8f0000e0
:1008bc009091000092930000949500009697000090
:1008cc00989900009a9b00009c9d00009e9f000040
:1008dc00a0a10000a2a30000a4a50000a6a70000f0
:1008ec00a8a90000aaab0000acad0000aeaf0000a0
:1008fc00b0b10000b2b30000b4b50000b6b7000050
:10090c00b8b90000babb0000bcbd0000bebf0000ff
:10091c00c0c10000c2c30000c4c50000c6c70000af
:10092c00c8c90000cacb0000cccd0000cecf00005f
:10093c00d0d10000d2d30000d4d50000d6d700000f
:10094c00d8d90000dadb0000dcdd0000dedf0000bf
:10095c00e0e10000e2e30000e4e50000e6e700006f
:10096c00e8e90000eaeb0000eced0000eeef00001f
:10097c00f0f10000f2f30000f4f50000f6f70000cf
:10098c00f8f90000fafb0000fcfd0000feff00007f
:10099c000080000040c0000020a0000060e00000cb
:1009ac001090000050d0000030b0000070f000003b
:1009bc000888000048c8000028a8000068e800006b
:1009cc001898000058d8000038b8000078f80000db
:1009dc000484000044c4000024a4000064e400006b
:1009ec001494000054d4000034b4000074f40000db
:1009fc000c8c00004ccc00002cac00006cec00000b
:100a0c001c9c00005cdc00003cbc00007cfc00007a
:100a1c000282000042c2000022a2000062e200003a
:100a2c001292000052d2000032b2000072f20000aa
:100a3c000a8a00004aca00002aaa00006aea0000da
:100a4c001a9a00005ada00003aba00007afa00004a
:100a5c000686000046c6000026a6000066e60000da
:100a6c001696000056d6000036b6000076f600004a
:100a7c000e8e00004ece00002eae00006eee00007a
:100a8c001e9e00005ede00003ebe00007efe0000ea
:100a9c000181000041c1000021a1000061e10000c2
:100aac001191000051d1000031b1000071f1000032
:100abc000989000049c9000029a9000069e9000062
:100acc001999000059d9000039b9000079f90000d2
:100adc000585000045c5000025a5000065e5000062
:100aec001595000055d5000035b5000075f50000d2
:100afc000d8d00004dcd00002dad00006ded000002
:100b0c001d9d00005ddd00003dbd00007dfd000071
:100b1c000383000043c3000023a3000063e3000031
:100b2c001393000053d3000033b3000073f30000a1
:100b3c000b8b00004bcb00002bab00006beb0000d1
:100b4c001b9b00005bdb00003bbb00007bfb000041
:100b5c000787000047c7000027a7000067e70000d1
:100b6c001797000057d7000037b7000077f7000041
:100b7c000f8f00004fcf00002faf00006fef000071
:100b8c001f9f00005fdf00003fbf00007fff0000e1
:020000040000fa
:100b9c000000fa001ed0bf000004e0000c003a0078
:100bac001cd0bf000080fb00e14c280061407800a5
:100bbc000080fb00e13c2800614078000080fb00d5
:100bcc00e14c2800614078001df0b7001800370098
:100bdc001ed0bf000004e000150032001ed0bf0084
:100bec008080fb0021d0bf000080fb000000e900ea
:100bfc00808f50000e003d00d10121009140780003
:100c0c001cd0bf0000c068000080fb00e14c280035
:100c1c00614078000080fb00e13c280061407800d6
:100c2c000080fb00e14c2800614078001df0b7000b
:100c3c000080fa00000006000600fa002007980069
:100c4c000000eb00100798009e00900010818000bf
:100c5c0000806800e14c2800614078000080fb00b7
:100c6c00e13c2800614078000080fb00e14c28004a
:100c7c00614078000080fb00100798000000eb003a
:100c8c00000f780011003700a02a21001e00400040
:100c9c00104078008080fb001e00900000806800ef
:100cac00e14c2800614078000080fb00e13c28000a
:100cbc00614078000080fb00e14c28006140780026
:100ccc000080fb00100798001e0fe8009e007800c3
:100cdc002e0090000000e900808f5000eaff3900e0
:100cec001e0090000080fa00000006000000fa00d0
:100cfc001e70ef00232ea9002188a9002168a900ed
:100d0c0000082000c01188003a22ef003c22ef00be
:100d1c0020022000f01188007006200000128800cc
:100d2c00b0002000001288008000eb0054210a0063
:100d3c003a02000039e2a80038a2a8003882a800c4
:100d4c000188a9002188a8000168a9002168a800d1
:100d5c000080fa00000006000800fa00889fbe0020
:100d6c008a9fbe008c9fbe0030d0bf00e14f500068
:100d7c0005003a001ed0bf000004e000e90232007a
:100d8c0020c0b30030f0b70030d0bf00e24f5000ad
:100d9c002f003a00c0282100104078000080fb0092
:100dac0010818800108180006f0060002081880015
:100dbc0021818000c025210060c078000080fb00ec
:100dcc003081880021818000c026210060c078001d
:100ddc0021f0b7001181800030818000808f50009d
:100dec0003003a0021d0bf000004e00009003a00e3
:100dfc001e70ef0020128000004078001cf0b7003d
:100e0c000168a900232ea90010c0b30030f0b70070
:100e1c000400370021818000c027210060c07800c9
:100e2c0020f0b70021d0bf00e14f500003003a0082
:100e3c0040c0b30030f0b70005003700408180009f
:100e4c000000e8004081880030c0b30030f0b700eb
:100e5c0030d0bf00e34f500019003a00e1012100ef
:100e6c009140780021d0bf0080cf5000af023a00f3
:100e7c0000292100904078001dd0bf0080cf500089
:100e8c0006003a0021d0bf00e54f500003003a00a5
:100e9c0040c0b30030f0b700090037001e70ef00ff
:100eac0020128000004078001cf0b7000168a900f7
:100ebc00232ea90010c0b30030f0b7009c023700fd
:100ecc0030d0bf00e44f500099023a002830ef00b8
:100edc001181800070082000808f500012013200b8
:100eec0070082000808f500011003e00200320006d
:100efc00808f50003800320020032000808f50007b
:100f0c0004003e00b0022000808f50002e02320000
:100f1c006002370060052000808f5000d500320041
:100f2c0040062000808f50008600320059023700a6
:100f3c00100d2000808f500011003200100d200089
:100f4c00808f500007003e00500b2000808f500017
:100f5c009b003200800c2000808f50001e0132005c
:100f6c004c023700300e2000808f50004b003200b6
:100f7c00a00f2000808f5000d601320045023700b0
:100f8c00a02a210001c2b30001487800b02a210038
:100f9c008040eb0001487800c02a210051c6b30004
:100fac0001487800d02a210001c1b3000148780023
:100fbc0020d0bf000080fb000004e90020d0bf005f
:100fcc000080fb001cff070080407800a02a210055
:100fdc0001707c0047023700e04026003100200001
:100fec0090808800a18088002ad0bf0080407800c3
:100ffc0000cfb30000c060000014a0002af0b700be
:10100c00a102210091407800a02a2100014878001b
:10101c0090808000a180800080407800b02a210060
:10102c000148780090808000a1808000c809dd0014
:10103c004801de0002817100020f78004889de0051
:10104c00120798009e407800c02a210001487800c1
:10105c0090808000a1808000c089de00230798006a
:10106c004f89de0032079800ce409000d02a210034
:10107c000148780020d0bf000080fb000004e9008c
:10108c0020d0bf000080fb00ebfe07008040780002
:10109c00a02a210001707c0016023700506121004b
:1010ac005100200090808800a18088002ad0bf00c9
:1010bc008040780000cfb30000c060003040b30027
:1010cc002af0b700a102210091407800a02a21004b
:1010dc000148780090808000a180800080407800da
:1010ec00b02a21000148780090808000a180800007
:1010fc00c809dd004806de000c867100c88ede00d3
:10110c008c407800c02a2100014878009080800033
:10111c00a1808000408dde00cf8dde008a407800fb
:10112c00d02a21000148780020d0bf000080fb00ad
:10113c00c1fe070080407800e02a210001487800b9
:10114c00ec0137002ad0bf008040780000cfb300fc
:10115c0000c060000024a0002af0b700a10221000a
:10116c0091407800a02a210001487800110021004c
:10117c0091407800b02a210001487800010021003c
:10118c0091407800c02a210001487800d02a210023
:10119c008040eb000148780020d0bf000080fb00ad
:1011ac000004e90020d0bf000080fb00a2fe070075
:1011bc0080407800a02a210001707c00cd0137000e
:1011cc0030a227008100200090808800a180880038
:1011dc002ad0bf008040780000cfb30000c0600070
:1011ec005040b3002af0b700a102210091407800d2
:1011fc00a02a21000148780090808000a180800006
:10120c0080407800b02a210001487800908080004e
:10121c00a18080004809dd004804de00080471004c
:10122c00c88cde0088407800c02a21000148780074
:10123c0090808000a1808000408bde00cf8bde0090
:10124c0086407800d02a21000148780020d0bf00c9
:10125c000080fb000004e90020d0bf000080fb00f0
:10126c0075fe070080407800a02a210001707c00e8
:10127c00a0013700a0c22200a100200090808800ad
:10128c00a18088002ad0bf008040780000cfb30036
:10129c0000c060006040b3002af0b700a10221003a
:1012ac0091407800a02a21000148780090808000ad
:1012bc00a180800080407800b02a2100014878008d
:1012cc0090808000a1808000c809dd004802de000b
:1012dc0004827100c88ade0084407800c02a210094
:1012ec000148780090808000a18080004089de0059
:1012fc00cf89de0082407800d02a21000148780096
:10130c0020d0bf000080fb000004e90020d0bf000b
:10131c000080fb0048fe070080407800a02a2100d6
:10132c0001707c0073013700b080800080004000a9
:10133c00c00521000080400010007800804078003b
:10134c00a02a210001487800b08080008000400075
:10135c00c005210000804000100078004800de002d
:10136c0080407800b02a210001487800d0808000ad
:10137c0080004000c0052100008040001000780073
:10138c0080407800c02a210001487800d08080007d
:10139c0080004000c0052100008040001000780053
:1013ac004800de0080407800d02a210001487800f7
:1013bc0020d0bf000080fb000004e90020d0bf005b
:1013cc000080fb001cfe070080407800a02a210052
:1013dc0001707c0047013700d02821009040780034
:1013ec00a02a210001487800e028210090407800d4
:1013fc00b02a210001487800f028210090407800a4
:10140c00c02a210001487800e02821001040780013
:10141c0009f0b700f02821001040780008f0b70060
:10142c00d02821009040780010c9b30080cf500024
:10143c009e003200d02821009040780020cbb300d1
:10144c0080cf500099003200d028210090407800c5
:10145c0030c2b30080cf500005003a0020c0b3006a
:10146c002af0b7000170ef000070ef008f0037001a
:10147c00d028210010407800ec4f40008b00320047
:10148c00d02821009040780050c6b30080cf500087
:10149c0086003200d02821009040780060c4b30050
:1014ac0080cf50000c003a00f0282100104078004a
:1014bc000080fb00c0808800c0808000c800dd0078
:1014cc00e0282100104078000080fb000100700033
:1014dc00c080880075003700d0282100904078002b
:1014ec0070cdb30080cf50000c003a00f0282100e2
:1014fc00104078000080fb00b0808800b080800035
:10150c00c800dd00e0282100104078000080fb00be
:10151c0001007000b080880064003700d0282100e2
:10152c009040780080c7b30080cf50000c003a0088
:10153c00f0282100104078000080fb00d08088004b
:10154c00d0808000c800dd00e02821001040780029
:10155c000080fb0001007000d08088005300370031
:10156c00d028210010407800f74f40000c003a00c2
:10157c0009d0bf000004e0004c003a0060818000fc
:10158c007181800080407800b02a210001487800e9
:10159c00c02a21008040eb0001487800430037004e
:1015ac00d028210090407800a0ccb30080cf500010
:1015bc0007003a00b02a210031c0b300014878007e
:1015cc00c02a21008040eb0001487800370037002a
:1015dc00d028210090407800b0c5b30080cf5000d7
:1015ec0032003200d028210090407800c0c8b300ef
:1015fc0080cf500004003a006180800050592900cf
:10160c00808f500029003200d028210090407800b3
:10161c00f0cab30080cf500024003a0091002100a2
:10162c009140780040c3b30080cf500002003a00d4
:10163c00000000001d00370091002100914078004f
:10164c00a0cab30080cf50000c003a0081002100ea
:10165c009140780050c5b30080cf500007003a008d
:10166c00505525005080880050052000708088005f
:10167c00a00a2000808088000c0037009100210017
:10168c009140780050c9b30080cf500007003a0059
:10169c00810021009140780050c9b30080cf5000e8
:1016ac0002003a00505929006080880020d0bf0009
:1016bc000080fb000004e90020d0bf000080fb008c
:1016cc005dfd070080407800a02a210001707c009d
:1016dc0088003700d028210090407800a02a2100f3
:1016ec0001487800d02821001040780002f0b700a3
:1016fc00d0282100104078000080fb0080004000c2
:10170c00c005210000804000100078008040780067
:10171c00b02a210001487800d02821001040780020
:10172c000080fb0080004000c005210000804000cc
:10173c00100078004880de0080407800c02a21002c
:10174c0001487800210021009140780000c8b300c6
:10175c0080cf500007003a00b02a210051c6b300d8
:10176c0001487800c02a21008040eb000148780035
:10177c000b003700210021009140780010c8b30005
:10178c0080cf500006003a00b02a210061c2b3009d
:10179c0001487800c02a21008040eb000148780005
:1017ac0020d0bf000080fb000004e90020d0bf0067
:1017bc000080fb0020fd070080407800a02a21005b
:1017cc0001707c004b003700d0282100904078003d
:1017dc00a02a210001487800e028210090407800e0
:1017ec00b02a210001487800f028210090407800b0
:1017fc00c02a21000148780020d0bf000080fb00e7
:10180c000004e90020d0bf000080fb000afd0700a7
:10181c0080407800a02a210001707c00618080004b
:10182c0050592900808f500031003a00d0282100f7
:10183c00104078000080fb0030808800f0282100e8
:10184c00104078000080fb00208088002080800001
:10185c00c800dd00e0282100104078000080fb006b
:10186c000100700020808800c08080004800dd00ee
:10187c008000780030808000008040002180800053
:10188c0000014000c0052100000041000108780063
:10189c0018003700a102210091407800a02a2100f5
:1018ac0001487800b02a21008040eb000148780004
:1018bc00c02a21008040eb0001487800d02a21008a
:1018cc008040eb000148780020d0bf000080fb0076
:1018dc000004e90020d0bf000080fb00d6fc07000c
:1018ec0080407800a02a210001707c0001003700a4
:1018fc0000000000232ea8001f70ef001e70ef00e8
:10190c001fd0bf000080fb00a12a2100614078009d
:10191c000080fb004012880010c0b30030f0b7000c
:10192c000300370000000000010037000000000039
:10193c004f06be004f05be004f04be000080fa00eb
:04194c000000060091
:020000040000fa
:10195000321000000200000080000000341000007f
:101960005802000082000000413230004c53420017
:1019700037315700313631003730300034362000ef
:1019800020204300313036003034450053543000bd
:1019900032323000373434002020200020414e0005
:1019a0003833490035383800305730003030300097
:1019b0003030300030ffff00303030003030300049
:1019c00030303000303030003030300030303000d7
:1019d000ffff000000000000000000000000000009
:1019e00000000000000000000000000000000000f7
:1019f00000000000000000000000000000000000e7
:101a000000000000000000000000000000000000d6
:101a100000000000000000000000000000000000c6
:101c1000000000000000000000000000007502004d
:101c200000000000000000000000000000000000b4
:101c3000be000000000000000000000000000000e6
:101c4000000000000000000000d13200e364b50095
:101c50005687c80019fa2b00ac7d9e004f0001008a
:101c60000101010001010100050505000505000055
:101c70000100000005050500050505000504040038
:101c800004040400000500008c1200003c00000069
:101c9000800000002a100000080000008200000000
:101ca0000200190000000000010000000010000008
:0c1cb0002a00000080000000000000007e
:020000040000fa
:101cbc000000fa003100070005000700540007007f
:101ccc005f00070009fc07000080fa000000060016
:101cdc000000fa0080afa9001100200050210a007a
:101cec00860f0000010c2000b0210a00880f0000b4
:101cfc004100200064210a008a0f0000110020001e
:101d0c0020210a008a0f00003200200080072000ea
:101d1c00a109200053f820008049780081497800ff
:101d2c0082497800207c8000000178000200a0002d
:101d3c00600420007105200043f8200080497800e1
:101d4c00814978008249780000000000207c8000e6
:101d5c00610060000000e000fcff3a0000000000a1
:101d6c00217c800000022000008060000000e00068
:101d7c00fbff32000080fa00000006000000fa00b1
:101d8c00062eef00222eef00f001200010708800cc
:101d9c00d0f72f00f07088000c2eef00282eef00eb
:101dac000a2eef00262eef00082eef00242eef0057
:101dbc00f00120000070880050202000e0708800a6
:101dcc000000eb0051052000b1468800a10a20005c
:101ddc00b14688000068880011002000d8210a0054
:101dec00860d000080c2b30028edb7001f2ea9009d
:101dfc000080200051052000b1468800a10a200077
:101e0c00b1468800006888000080fa0000000600d7
:101e1c000000fa007100200064210a004008000054
:101e2c007100200020210a004608000071002000eb
:101e3c00ec210a00440800000080fa0000000600b3
:101e4c000000fa000021ef000028a9002028a800bb
:101e5c000421ef0000ee22004008880001e1a800f8
:101e6c000080fa00000006000000fa003230ef009b
:101e7c0003003700908180000000e800908188000a
:101e8c0091818000d0a52b00808f5000f9ff360087
:101e9c003230ef0003003700908180000000e80032
:101eac009081880091818000d0a52b00808f5000fc
:101ebc00f9ff36007eff070000000000feff370030
:020000040000fa
:020000040001f9
:045e300078ffff00f8
:020000040000fa
:020000040001f9
:045e380078ffff00f0
:020000040000fa
:020000040001f9
:045e5000deffff0072
:00000001FF
